{
  "_format": "hh-sol-artifact-1",
  "contractName": "ZkVotingFactory",
  "sourceName": "contracts/ZkVotingFactory.sol",
  "abi": [
    {
      "inputs": [
        {
          "internalType": "address",
          "name": "_semaphoreAddress",
          "type": "address"
        }
      ],
      "stateMutability": "nonpayable",
      "type": "constructor"
    },
    {
      "anonymous": false,
      "inputs": [
        {
          "indexed": false,
          "internalType": "address",
          "name": "pollAddress",
          "type": "address"
        },
        {
          "indexed": false,
          "internalType": "string",
          "name": "title",
          "type": "string"
        },
        {
          "indexed": false,
          "internalType": "string",
          "name": "description",
          "type": "string"
        },
        {
          "indexed": false,
          "internalType": "address",
          "name": "owner",
          "type": "address"
        }
      ],
      "name": "PollCreated",
      "type": "event"
    },
    {
      "inputs": [
        {
          "internalType": "string",
          "name": "title",
          "type": "string"
        },
        {
          "internalType": "string",
          "name": "description",
          "type": "string"
        }
      ],
      "name": "createPoll",
      "outputs": [
        {
          "internalType": "address",
          "name": "",
          "type": "address"
        }
      ],
      "stateMutability": "nonpayable",
      "type": "function"
    },
    {
      "inputs": [],
      "name": "getAllPolls",
      "outputs": [
        {
          "components": [
            {
              "internalType": "address",
              "name": "pollAddress",
              "type": "address"
            },
            {
              "internalType": "string",
              "name": "title",
              "type": "string"
            },
            {
              "internalType": "string",
              "name": "description",
              "type": "string"
            },
            {
              "internalType": "uint256",
              "name": "createdAt",
              "type": "uint256"
            }
          ],
          "internalType": "struct ZkVotingFactory.PollContext[]",
          "name": "",
          "type": "tuple[]"
        }
      ],
      "stateMutability": "view",
      "type": "function"
    },
    {
      "inputs": [],
      "name": "getPollsCount",
      "outputs": [
        {
          "internalType": "uint256",
          "name": "",
          "type": "uint256"
        }
      ],
      "stateMutability": "view",
      "type": "function"
    },
    {
      "inputs": [
        {
          "internalType": "uint256",
          "name": "",
          "type": "uint256"
        }
      ],
      "name": "polls",
      "outputs": [
        {
          "internalType": "address",
          "name": "pollAddress",
          "type": "address"
        },
        {
          "internalType": "string",
          "name": "title",
          "type": "string"
        },
        {
          "internalType": "string",
          "name": "description",
          "type": "string"
        },
        {
          "internalType": "uint256",
          "name": "createdAt",
          "type": "uint256"
        }
      ],
      "stateMutability": "view",
      "type": "function"
    },
    {
      "inputs": [],
      "name": "semaphoreAddress",
      "outputs": [
        {
          "internalType": "address",
          "name": "",
          "type": "address"
        }
      ],
      "stateMutability": "view",
      "type": "function"
    }
  ],
  "bytecode": "0x6080604052348015600f57600080fd5b506040516115d43803806115d4833981016040819052602c916050565b600180546001600160a01b0319166001600160a01b0392909216919091179055607e565b600060208284031215606157600080fd5b81516001600160a01b0381168114607757600080fd5b9392505050565b6115478061008d6000396000f3fe608060405234801561001057600080fd5b50600436106100575760003560e01c806304710b661461005c57806332b633fa1461008c578063ac2f0074146100a1578063e0995916146100c4578063f7da2ac9146100d5575b600080fd5b61006f61006a3660046105dc565b6100e8565b6040516001600160a01b0390911681526020015b60405180910390f35b61009461028d565b6040516100839190610693565b6100b46100af36600461073f565b610430565b6040516100839493929190610758565b600054604051908152602001610083565b60015461006f906001600160a01b031681565b60015460405160009182916001600160a01b0390911690339061010a90610586565b6001600160a01b03928316815291166020820152604001604051809103906000f08015801561013d573d6000803e3d6000fd5b50905060006040518060800160405280836001600160a01b0316815260200188888080601f016020809104026020016040519081016040528093929190818152602001838380828437600092019190915250505090825250604080516020601f89018190048102820181019092528781529181019190889088908190840183828082843760009201829052509385525050426020938401525083546001808201865594825290829020835160049092020180546001600160a01b0319166001600160a01b03909216919091178155908201519192909190820190610221908261084c565b5060408201516002820190610236908261084c565b506060820151816003015550507ffc8517fb2e18d80391622e53b39746de808c11b9fe3ada4dbd62e991139826b881878787873360405161027c96959493929190610938565b60405180910390a195945050505050565b60606000805480602002602001604051908101604052809291908181526020016000905b8282101561042757600084815260209081902060408051608081019091526004850290910180546001600160a01b0316825260018101805492939192918401916102fa906107b6565b80601f0160208091040260200160405190810160405280929190818152602001828054610326906107b6565b80156103735780601f1061034857610100808354040283529160200191610373565b820191906000526020600020905b81548152906001019060200180831161035657829003601f168201915b5050505050815260200160028201805461038c906107b6565b80601f01602080910402602001604051908101604052809291908181526020018280546103b8906107b6565b80156104055780601f106103da57610100808354040283529160200191610405565b820191906000526020600020905b8154815290600101906020018083116103e857829003601f168201915b50505050508152602001600382015481525050815260200190600101906102b1565b50505050905090565b6000818154811061044057600080fd5b6000918252602090912060049091020180546001820180546001600160a01b0390921693509061046f906107b6565b80601f016020809104026020016040519081016040528092919081815260200182805461049b906107b6565b80156104e85780601f106104bd576101008083540402835291602001916104e8565b820191906000526020600020905b8154815290600101906020018083116104cb57829003601f168201915b5050505050908060020180546104fd906107b6565b80601f0160208091040260200160405190810160405280929190818152602001828054610529906107b6565b80156105765780601f1061054b57610100808354040283529160200191610576565b820191906000526020600020905b81548152906001019060200180831161055957829003601f168201915b5050505050908060030154905084565b610b858061098d83390190565b60008083601f8401126105a557600080fd5b50813567ffffffffffffffff8111156105bd57600080fd5b6020830191508360208285010111156105d557600080fd5b9250929050565b600080600080604085870312156105f257600080fd5b843567ffffffffffffffff81111561060957600080fd5b61061587828801610593565b909550935050602085013567ffffffffffffffff81111561063557600080fd5b61064187828801610593565b95989497509550505050565b6000815180845260005b8181101561067357602081850181015186830182015201610657565b506000602082860101526020601f19601f83011685010191505092915050565b6000602082016020835280845180835260408501915060408160051b86010192506020860160005b8281101561073357868503603f19018452815180516001600160a01b031686526020808201516080918801829052906106f69088018261064d565b90506040820151878203604089015261070f828261064d565b606093840151989093019790975250945060209384019391909101906001016106bb565b50929695505050505050565b60006020828403121561075157600080fd5b5035919050565b6001600160a01b038516815260806020820181905260009061077c9083018661064d565b828103604084015261078e818661064d565b91505082606083015295945050505050565b634e487b7160e01b600052604160045260246000fd5b600181811c908216806107ca57607f821691505b6020821081036107ea57634e487b7160e01b600052602260045260246000fd5b50919050565b601f821115610847578282111561084757806000526020600020601f840160051c602085101561081e575060005b90810190601f840160051c0360005b818110156108435760008382015560010161082d565b5050505b505050565b815167ffffffffffffffff811115610866576108666107a0565b61087a8161087484546107b6565b846107f0565b6020601f8211600181146108ae57600083156108965750848201515b600019600385901b1c1916600184901b178455610908565b600084815260208120601f198516915b828110156108de57878501518255602094850194600190920191016108be565b50848210156108fc5786840151600019600387901b60f8161c191681555b505060018360011b0184555b5050505050565b81835281816020850137506000828201602090810191909152601f909101601f19169091010190565b6001600160a01b038716815260806020820181905260009061095d908301878961090f565b828103604084015261097081868861090f565b91505060018060a01b038316606083015297965050505050505056fe608060405234801561001057600080fd5b50604051610b85380380610b8583398101604081905261002f916100fa565b600080546001600160a01b0319166001600160a01b03848116918217909255600280546001600160a81b03191660ff196101009486169490940293909316929092179091556040516302e1f9db60e51b8152306004820152635c3f3b60906024016020604051808303816000875af11580156100af573d6000803e3d6000fd5b505050506040513d601f19601f820116820180604052508101906100d3919061012d565b600155506101469050565b80516001600160a01b03811681146100f557600080fd5b919050565b6000806040838503121561010d57600080fd5b610116836100de565b9150610124602084016100de565b90509250929050565b60006020828403121561013f57600080fd5b5051919050565b610a30806101556000396000f3fe608060405234801561001057600080fd5b50600436106100a95760003560e01c8063a0f44c9211610071578063a0f44c9214610141578063a13f2f8d1461014a578063adf77ce71461015d578063c19d93fb14610170578063c3403ddf1461018a578063c6c0572d1461019257600080fd5b80630d0b1176146100ae5780631ec6b60a146100c35780633c3a220d146100cb5780637b5d2534146100fe5780638da5cb5b14610129575b600080fd5b6100c16100bc366004610836565b6101c5565b005b6100c1610438565b6100eb6100d9366004610870565b60046020526000908152604090205481565b6040519081526020015b60405180910390f35b600054610111906001600160a01b031681565b6040516001600160a01b0390911681526020016100f5565b6002546101119061010090046001600160a01b031681565b6100eb60015481565b6100c1610158366004610870565b6104f8565b6100c161016b366004610889565b610604565b60025461017d9060ff1681565b6040516100f59190610916565b6100c1610758565b6101b56101a0366004610870565b60036020526000908152604090205460ff1681565b60405190151581526020016100f5565b60016002805460ff16908111156101de576101de610900565b146102265760405162461bcd60e51b81526020600482015260136024820152724e6f7420696e20766f74696e6720706861736560681b60448201526064015b60405180910390fd5b60408082013560009081526003602052205460ff16156102815760405162461bcd60e51b8152602060048201526016602482015275165bdd481a185d9948185b1c9958591e481d9bdd195960521b604482015260640161021d565b608081013530146102c45760405162461bcd60e51b815260206004820152600d60248201526c496e76616c69642073636f706560981b604482015260640161021d565b8181606001351461030e5760405162461bcd60e51b815260206004820152601460248201527315185b5c195c9959081d9bdd19481cda59db985b60621b604482015260640161021d565b600080546001546040516308ade83160e31b81526001600160a01b039092169163456f41889161034291869060040161093e565b602060405180830381865afa15801561035f573d6000803e3d6000fd5b505050506040513d601f19601f820116820180604052508101906103839190610994565b9050806103c55760405162461bcd60e51b815260206004820152601060248201526f24b73b30b634b2102d2590383937b7b360811b604482015260640161021d565b604080830135600090815260036020908152828220805460ff19166001179055858252600490529081208054916103fb836109bd565b90915550506040518381527f9593d9bd30eff4872ec3bab10360ad82eaac80651801e68f47f0674c38415c3d9060200160405180910390a1505050565b60025461010090046001600160a01b031633146104835760405162461bcd60e51b81526020600482015260096024820152682737ba1037bbb732b960b91b604482015260640161021d565b60006002805460ff169081111561049c5761049c610900565b146104e95760405162461bcd60e51b815260206004820181905260248201527f43616e206f6e6c792073746172742066726f6d20726567697374726174696f6e604482015260640161021d565b6002805460ff19166001179055565b60006002805460ff169081111561051157610511610900565b1461055a5760405162461bcd60e51b81526020600482015260196024820152784e6f7420696e20726567697374726174696f6e20706861736560381b604482015260640161021d565b600054600154604051631783efc360e01b81526001600160a01b0390921691631783efc391610596918590600401918252602082015260400190565b600060405180830381600087803b1580156105b057600080fd5b505af11580156105c4573d6000803e3d6000fd5b505050507f640cfad995238c39f105b2884a2e9d3b1482d753cdcc97f2e7db4192e89121a8816040516105f991815260200190565b60405180910390a150565b60006002805460ff169081111561061d5761061d610900565b146106665760405162461bcd60e51b81526020600482015260196024820152784e6f7420696e20726567697374726174696f6e20706861736560381b604482015260640161021d565b60005b81811015610753576000546001546001600160a01b0390911690631783efc39085858581811061069b5761069b6109e4565b905060200201356040518363ffffffff1660e01b81526004016106c8929190918252602082015260400190565b600060405180830381600087803b1580156106e257600080fd5b505af11580156106f6573d6000803e3d6000fd5b505050507f640cfad995238c39f105b2884a2e9d3b1482d753cdcc97f2e7db4192e89121a883838381811061072d5761072d6109e4565b9050602002013560405161074391815260200190565b60405180910390a1600101610669565b505050565b60025461010090046001600160a01b031633146107a35760405162461bcd60e51b81526020600482015260096024820152682737ba1037bbb732b960b91b604482015260640161021d565b60016002805460ff16908111156107bc576107bc610900565b146107ff5760405162461bcd60e51b81526020600482015260136024820152724e6f7420696e20766f74696e6720706861736560681b604482015260640161021d565b6002805460ff1916811790556040517f5e24da2538f801728822124bb8a94fd11c332883ca34345e44ddf7f79587cef990600090a1565b6000808284036101c081121561084b57600080fd5b833592506101a0601f198201121561086257600080fd5b506020830190509250929050565b60006020828403121561088257600080fd5b5035919050565b6000806020838503121561089c57600080fd5b823567ffffffffffffffff8111156108b357600080fd5b8301601f810185136108c457600080fd5b803567ffffffffffffffff8111156108db57600080fd5b8560208260051b84010111156108f057600080fd5b6020919091019590945092505050565b634e487b7160e01b600052602160045260246000fd5b602081016003831061093857634e487b7160e01b600052602160045260246000fd5b91905290565b828152813560208083019190915282013560408083019190915282013560608083019190915282013560808083019190915282013560a0808301919091526101c082019061010090840160c08401379392505050565b6000602082840312156109a657600080fd5b815180151581146109b657600080fd5b9392505050565b6000600182016109dd57634e487b7160e01b600052601160045260246000fd5b5060010190565b634e487b7160e01b600052603260045260246000fdfea2646970667358221220aab2dc777a9c69ae0aa6ebaefc33e0b8b7e8019eae7cc132c6be217e91b16f2064736f6c63430008220033a26469706673582212208342603d8d9b86b66e39a1ab320ccaf62d870e7ab4ebb3b6c046b49a24db2a8264736f6c63430008220033",
  "linkReferences": {},
  "deployedLinkReferences": {}
}