{
  "_format": "hh-sol-artifact-1",
  "contractName": "ZkVotingLottery",
  "sourceName": "contracts/ZkVotingLottery.sol",
  "abi": [
    {
      "inputs": [
        {
          "internalType": "address",
          "name": "_semaphoreAddress",
          "type": "address"
        }
      ],
      "stateMutability": "nonpayable",
      "type": "constructor"
    },
    {
      "anonymous": false,
      "inputs": [
        {
          "indexed": false,
          "internalType": "uint256",
          "name": "winningNullifier",
          "type": "uint256"
        }
      ],
      "name": "LotteryDrawn",
      "type": "event"
    },
    {
      "anonymous": false,
      "inputs": [],
      "name": "PollClosed",
      "type": "event"
    },
    {
      "anonymous": false,
      "inputs": [
        {
          "indexed": true,
          "internalType": "address",
          "name": "receiver",
          "type": "address"
        },
        {
          "indexed": false,
          "internalType": "uint256",
          "name": "winningNullifier",
          "type": "uint256"
        }
      ],
      "name": "PrizeClaimed",
      "type": "event"
    },
    {
      "anonymous": false,
      "inputs": [
        {
          "indexed": false,
          "internalType": "uint256",
          "name": "candidate",
          "type": "uint256"
        }
      ],
      "name": "VoteCast",
      "type": "event"
    },
    {
      "anonymous": false,
      "inputs": [
        {
          "indexed": false,
          "internalType": "uint256",
          "name": "identityCommitment",
          "type": "uint256"
        }
      ],
      "name": "VoterRegistered",
      "type": "event"
    },
    {
      "inputs": [
        {
          "internalType": "uint256",
          "name": "vote",
          "type": "uint256"
        },
        {
          "components": [
            {
              "internalType": "uint256",
              "name": "merkleTreeDepth",
              "type": "uint256"
            },
            {
              "internalType": "uint256",
              "name": "merkleTreeRoot",
              "type": "uint256"
            },
            {
              "internalType": "uint256",
              "name": "nullifier",
              "type": "uint256"
            },
            {
              "internalType": "uint256",
              "name": "message",
              "type": "uint256"
            },
            {
              "internalType": "uint256",
              "name": "scope",
              "type": "uint256"
            },
            {
              "internalType": "uint256[8]",
              "name": "points",
              "type": "uint256[8]"
            }
          ],
          "internalType": "struct ISemaphore.SemaphoreProof",
          "name": "proof",
          "type": "tuple"
        }
      ],
      "name": "castVote",
      "outputs": [],
      "stateMutability": "nonpayable",
      "type": "function"
    },
    {
      "inputs": [
        {
          "internalType": "address",
          "name": "receiver",
          "type": "address"
        },
        {
          "components": [
            {
              "internalType": "uint256",
              "name": "merkleTreeDepth",
              "type": "uint256"
            },
            {
              "internalType": "uint256",
              "name": "merkleTreeRoot",
              "type": "uint256"
            },
            {
              "internalType": "uint256",
              "name": "nullifier",
              "type": "uint256"
            },
            {
              "internalType": "uint256",
              "name": "message",
              "type": "uint256"
            },
            {
              "internalType": "uint256",
              "name": "scope",
              "type": "uint256"
            },
            {
              "internalType": "uint256[8]",
              "name": "points",
              "type": "uint256[8]"
            }
          ],
          "internalType": "struct ISemaphore.SemaphoreProof",
          "name": "proof",
          "type": "tuple"
        }
      ],
      "name": "claimPrize",
      "outputs": [],
      "stateMutability": "nonpayable",
      "type": "function"
    },
    {
      "inputs": [],
      "name": "endVotingAndDrawLottery",
      "outputs": [],
      "stateMutability": "nonpayable",
      "type": "function"
    },
    {
      "inputs": [],
      "name": "groupId",
      "outputs": [
        {
          "internalType": "uint256",
          "name": "",
          "type": "uint256"
        }
      ],
      "stateMutability": "view",
      "type": "function"
    },
    {
      "inputs": [
        {
          "internalType": "uint256",
          "name": "",
          "type": "uint256"
        }
      ],
      "name": "isNullifierUsed",
      "outputs": [
        {
          "internalType": "bool",
          "name": "",
          "type": "bool"
        }
      ],
      "stateMutability": "view",
      "type": "function"
    },
    {
      "inputs": [],
      "name": "owner",
      "outputs": [
        {
          "internalType": "address",
          "name": "",
          "type": "address"
        }
      ],
      "stateMutability": "view",
      "type": "function"
    },
    {
      "inputs": [],
      "name": "prizeClaimed",
      "outputs": [
        {
          "internalType": "bool",
          "name": "",
          "type": "bool"
        }
      ],
      "stateMutability": "view",
      "type": "function"
    },
    {
      "inputs": [
        {
          "internalType": "uint256",
          "name": "identityCommitment",
          "type": "uint256"
        }
      ],
      "name": "registerVoter",
      "outputs": [],
      "stateMutability": "nonpayable",
      "type": "function"
    },
    {
      "inputs": [],
      "name": "semaphore",
      "outputs": [
        {
          "internalType": "contract ISemaphore",
          "name": "",
          "type": "address"
        }
      ],
      "stateMutability": "view",
      "type": "function"
    },
    {
      "inputs": [],
      "name": "startVoting",
      "outputs": [],
      "stateMutability": "nonpayable",
      "type": "function"
    },
    {
      "inputs": [],
      "name": "state",
      "outputs": [
        {
          "internalType": "enum ZkVotingLottery.PollState",
          "name": "",
          "type": "uint8"
        }
      ],
      "stateMutability": "view",
      "type": "function"
    },
    {
      "inputs": [
        {
          "internalType": "uint256",
          "name": "",
          "type": "uint256"
        }
      ],
      "name": "usedNullifiersList",
      "outputs": [
        {
          "internalType": "uint256",
          "name": "",
          "type": "uint256"
        }
      ],
      "stateMutability": "view",
      "type": "function"
    },
    {
      "inputs": [
        {
          "internalType": "uint256",
          "name": "",
          "type": "uint256"
        }
      ],
      "name": "voteCounts",
      "outputs": [
        {
          "internalType": "uint256",
          "name": "",
          "type": "uint256"
        }
      ],
      "stateMutability": "view",
      "type": "function"
    },
    {
      "inputs": [],
      "name": "winningNullifier",
      "outputs": [
        {
          "internalType": "uint256",
          "name": "",
          "type": "uint256"
        }
      ],
      "stateMutability": "view",
      "type": "function"
    },
    {
      "stateMutability": "payable",
      "type": "receive"
    }
  ],
  "bytecode": "0x60806040523480156200001157600080fd5b5060405162001ea838038062001ea88339818101604052810190620000379190620001fe565b806000806101000a81548173ffffffffffffffffffffffffffffffffffffffff021916908373ffffffffffffffffffffffffffffffffffffffff16021790555033600260016101000a81548173ffffffffffffffffffffffffffffffffffffffff021916908373ffffffffffffffffffffffffffffffffffffffff1602179055506000600260006101000a81548160ff02191690836002811115620000e157620000e062000230565b5b021790555060008054906101000a900473ffffffffffffffffffffffffffffffffffffffff1673ffffffffffffffffffffffffffffffffffffffff16635c3f3b60306040518263ffffffff1660e01b815260040162000141919062000270565b6020604051808303816000875af115801562000161573d6000803e3d6000fd5b505050506040513d601f19601f82011682018060405250810190620001879190620002c8565b60018190555050620002fa565b600080fd5b600073ffffffffffffffffffffffffffffffffffffffff82169050919050565b6000620001c68262000199565b9050919050565b620001d881620001b9565b8114620001e457600080fd5b50565b600081519050620001f881620001cd565b92915050565b60006020828403121562000217576200021662000194565b5b60006200022784828501620001e7565b91505092915050565b7f4e487b7100000000000000000000000000000000000000000000000000000000600052602160045260246000fd5b6200026a81620001b9565b82525050565b60006020820190506200028760008301846200025f565b92915050565b6000819050919050565b620002a2816200028d565b8114620002ae57600080fd5b50565b600081519050620002c28162000297565b92915050565b600060208284031215620002e157620002e062000194565b5b6000620002f184828501620002b1565b91505092915050565b611b9e806200030a6000396000f3fe6080604052600436106100e15760003560e01c80639042bbf31161007f578063a13f2f8d11610059578063a13f2f8d14610281578063c19d93fb146102aa578063c6c0572d146102d5578063d90004ee14610312576100e8565b80639042bbf314610200578063985b804e1461022b578063a0f44c9214610256576100e8565b80634a559c8f116100bb5780634a559c8f1461016a5780636fdbb29a146101815780637b5d2534146101aa5780638da5cb5b146101d5576100e8565b80630d0b1176146100ed5780631ec6b60a146101165780633c3a220d1461012d576100e8565b366100e857005b600080fd5b3480156100f957600080fd5b50610114600480360381019061010f9190610f66565b61034f565b005b34801561012257600080fd5b5061012b610671565b005b34801561013957600080fd5b50610154600480360381019061014f9190610fa7565b6107a4565b6040516101619190610fe3565b60405180910390f35b34801561017657600080fd5b5061017f6107bc565b005b34801561018d57600080fd5b506101a860048036038101906101a3919061105c565b6109dd565b005b3480156101b657600080fd5b506101bf610d07565b6040516101cc91906110fc565b60405180910390f35b3480156101e157600080fd5b506101ea610d2b565b6040516101f79190611126565b60405180910390f35b34801561020c57600080fd5b50610215610d51565b604051610222919061115c565b60405180910390f35b34801561023757600080fd5b50610240610d64565b60405161024d9190610fe3565b60405180910390f35b34801561026257600080fd5b5061026b610d6a565b6040516102789190610fe3565b60405180910390f35b34801561028d57600080fd5b506102a860048036038101906102a39190610fa7565b610d70565b005b3480156102b657600080fd5b506102bf610eaf565b6040516102cc91906111ee565b60405180910390f35b3480156102e157600080fd5b506102fc60048036038101906102f79190610fa7565b610ec2565b604051610309919061115c565b60405180910390f35b34801561031e57600080fd5b5061033960048036038101906103349190610fa7565b610ee2565b6040516103469190610fe3565b60405180910390f35b6001600281111561036357610362611177565b5b600260009054906101000a900460ff16600281111561038557610384611177565b5b146103c5576040517f08c379a00000000000000000000000000000000000000000000000000000000081526004016103bc90611266565b60405180910390fd5b600360008260400135815260200190815260200160002060009054906101000a900460ff161561042a576040517f08c379a0000000000000000000000000000000000000000000000000000000008152600401610421906112d2565b60405180910390fd5b3073ffffffffffffffffffffffffffffffffffffffff16816080013514610486576040517f08c379a000000000000000000000000000000000000000000000000000000000815260040161047d9061133e565b60405180910390fd5b818160600135146104cc576040517f08c379a00000000000000000000000000000000000000000000000000000000081526004016104c3906113aa565b60405180910390fd5b60008060009054906101000a900473ffffffffffffffffffffffffffffffffffffffff1673ffffffffffffffffffffffffffffffffffffffff1663456f4188600154846040518363ffffffff1660e01b815260040161052c9291906114c1565b602060405180830381865afa158015610549573d6000803e3d6000fd5b505050506040513d601f19601f8201168201806040525081019061056d9190611517565b9050806105af576040517f08c379a00000000000000000000000000000000000000000000000000000000081526004016105a690611590565b60405180910390fd5b6001600360008460400135815260200190815260200160002060006101000a81548160ff021916908315150217905550600482604001359080600181540180825580915050600190039060005260206000200160009091909190915055600560008481526020019081526020016000206000815480929190610630906115df565b91905055507f9593d9bd30eff4872ec3bab10360ad82eaac80651801e68f47f0674c38415c3d836040516106649190610fe3565b60405180910390a1505050565b600260019054906101000a900473ffffffffffffffffffffffffffffffffffffffff1673ffffffffffffffffffffffffffffffffffffffff163373ffffffffffffffffffffffffffffffffffffffff1614610701576040517f08c379a00000000000000000000000000000000000000000000000000000000081526004016106f890611673565b60405180910390fd5b6000600281111561071557610714611177565b5b600260009054906101000a900460ff16600281111561073757610736611177565b5b14610777576040517f08c379a000000000000000000000000000000000000000000000000000000000815260040161076e906116df565b60405180910390fd5b6001600260006101000a81548160ff0219169083600281111561079d5761079c611177565b5b0217905550565b60056020528060005260406000206000915090505481565b600260019054906101000a900473ffffffffffffffffffffffffffffffffffffffff1673ffffffffffffffffffffffffffffffffffffffff163373ffffffffffffffffffffffffffffffffffffffff161461084c576040517f08c379a000000000000000000000000000000000000000000000000000000000815260040161084390611673565b60405180910390fd5b600160028111156108605761085f611177565b5b600260009054906101000a900460ff16600281111561088257610881611177565b5b146108c2576040517f08c379a00000000000000000000000000000000000000000000000000000000081526004016108b990611266565b60405180910390fd5b60028060006101000a81548160ff021916908360028111156108e7576108e6611177565b5b02179055507f5e24da2538f801728822124bb8a94fd11c332883ca34345e44ddf7f79587cef960405160405180910390a1600060048054905011156109db576000424460014361093791906116ff565b4060405160200161094a9392919061177f565b6040516020818303038152906040528051906020012060001c905060006004805490508261097891906117eb565b90506004818154811061098e5761098d61181c565b5b90600052602060002001546006819055507fdc58c8c6feb4d5eb8a0b43746674e603dc9305c7f908b8713641218e4a56a2c26006546040516109d09190610fe3565b60405180910390a150505b565b6002808111156109f0576109ef611177565b5b600260009054906101000a900460ff166002811115610a1257610a11611177565b5b14610a52576040517f08c379a0000000000000000000000000000000000000000000000000000000008152600401610a4990611897565b60405180910390fd5b600760009054906101000a900460ff1615610aa2576040517f08c379a0000000000000000000000000000000000000000000000000000000008152600401610a9990611903565b60405180910390fd5b600060065403610ae7576040517f08c379a0000000000000000000000000000000000000000000000000000000008152600401610ade9061196f565b60405180910390fd5b60007f222416aa477e0c5d60aae09397c92af04af24b636aa6bde48813b36c80f34fc460001c905080826080013514610b55576040517f08c379a0000000000000000000000000000000000000000000000000000000008152600401610b4c906119db565b60405180910390fd5b8273ffffffffffffffffffffffffffffffffffffffff16826060013514610bb1576040517f08c379a0000000000000000000000000000000000000000000000000000000008152600401610ba890611a47565b60405180910390fd5b60008060009054906101000a900473ffffffffffffffffffffffffffffffffffffffff1673ffffffffffffffffffffffffffffffffffffffff1663456f4188600154856040518363ffffffff1660e01b8152600401610c119291906114c1565b602060405180830381865afa158015610c2e573d6000803e3d6000fd5b505050506040513d601f19601f82011682018060405250810190610c529190611517565b905080610c94576040517f08c379a0000000000000000000000000000000000000000000000000000000008152600401610c8b90611ab3565b60405180910390fd5b6001600760006101000a81548160ff0219169083151502179055508373ffffffffffffffffffffffffffffffffffffffff167f95681e512bc0fe659e195e06c283eada494316f3d801213e48e7101af92bf7708460400135604051610cf99190610fe3565b60405180910390a250505050565b60008054906101000a900473ffffffffffffffffffffffffffffffffffffffff1681565b600260019054906101000a900473ffffffffffffffffffffffffffffffffffffffff1681565b600760009054906101000a900460ff1681565b60065481565b60015481565b60006002811115610d8457610d83611177565b5b600260009054906101000a900460ff166002811115610da657610da5611177565b5b14610de6576040517f08c379a0000000000000000000000000000000000000000000000000000000008152600401610ddd90611b1f565b60405180910390fd5b60008054906101000a900473ffffffffffffffffffffffffffffffffffffffff1673ffffffffffffffffffffffffffffffffffffffff16631783efc3600154836040518363ffffffff1660e01b8152600401610e43929190611b3f565b600060405180830381600087803b158015610e5d57600080fd5b505af1158015610e71573d6000803e3d6000fd5b505050507f640cfad995238c39f105b2884a2e9d3b1482d753cdcc97f2e7db4192e89121a881604051610ea49190610fe3565b60405180910390a150565b600260009054906101000a900460ff1681565b60036020528060005260406000206000915054906101000a900460ff1681565b60048181548110610ef257600080fd5b906000526020600020016000915090505481565b600080fd5b6000819050919050565b610f1e81610f0b565b8114610f2957600080fd5b50565b600081359050610f3b81610f15565b92915050565b600080fd5b60006101a08284031215610f5d57610f5c610f41565b5b81905092915050565b6000806101c08385031215610f7e57610f7d610f06565b5b6000610f8c85828601610f2c565b9250506020610f9d85828601610f46565b9150509250929050565b600060208284031215610fbd57610fbc610f06565b5b6000610fcb84828501610f2c565b91505092915050565b610fdd81610f0b565b82525050565b6000602082019050610ff86000830184610fd4565b92915050565b600073ffffffffffffffffffffffffffffffffffffffff82169050919050565b600061102982610ffe565b9050919050565b6110398161101e565b811461104457600080fd5b50565b60008135905061105681611030565b92915050565b6000806101c0838503121561107457611073610f06565b5b600061108285828601611047565b925050602061109385828601610f46565b9150509250929050565b6000819050919050565b60006110c26110bd6110b884610ffe565b61109d565b610ffe565b9050919050565b60006110d4826110a7565b9050919050565b60006110e6826110c9565b9050919050565b6110f6816110db565b82525050565b600060208201905061111160008301846110ed565b92915050565b6111208161101e565b82525050565b600060208201905061113b6000830184611117565b92915050565b60008115159050919050565b61115681611141565b82525050565b6000602082019050611171600083018461114d565b92915050565b7f4e487b7100000000000000000000000000000000000000000000000000000000600052602160045260246000fd5b600381106111b7576111b6611177565b5b50565b60008190506111c8826111a6565b919050565b60006111d8826111ba565b9050919050565b6111e8816111cd565b82525050565b600060208201905061120360008301846111df565b92915050565b600082825260208201905092915050565b7f4e6f7420696e20766f74696e6720706861736500000000000000000000000000600082015250565b6000611250601383611209565b915061125b8261121a565b602082019050919050565b6000602082019050818103600083015261127f81611243565b9050919050565b7f596f75206861766520616c726561647920766f74656400000000000000000000600082015250565b60006112bc601683611209565b91506112c782611286565b602082019050919050565b600060208201905081810360008301526112eb816112af565b9050919050565b7f496e76616c69642073636f706500000000000000000000000000000000000000600082015250565b6000611328600d83611209565b9150611333826112f2565b602082019050919050565b600060208201905081810360008301526113578161131b565b9050919050565b7f54616d706572656420766f7465207369676e616c000000000000000000000000600082015250565b6000611394601483611209565b915061139f8261135e565b602082019050919050565b600060208201905081810360008301526113c381611387565b9050919050565b60006113d96020840184610f2c565b905092915050565b6113ea81610f0b565b82525050565b600082905092915050565b82818337505050565b61141161010083836113fb565b5050565b6101a0820161142760008301836113ca565b61143460008501826113e1565b5061144260208301836113ca565b61144f60208501826113e1565b5061145d60408301836113ca565b61146a60408501826113e1565b5061147860608301836113ca565b61148560608501826113e1565b5061149360808301836113ca565b6114a060808501826113e1565b506114ae60a08301836113f0565b6114bb60a0850182611404565b50505050565b60006101c0820190506114d76000830185610fd4565b6114e46020830184611415565b9392505050565b6114f481611141565b81146114ff57600080fd5b50565b600081519050611511816114eb565b92915050565b60006020828403121561152d5761152c610f06565b5b600061153b84828501611502565b91505092915050565b7f496e76616c6964205a4b2070726f6f6600000000000000000000000000000000600082015250565b600061157a601083611209565b915061158582611544565b602082019050919050565b600060208201905081810360008301526115a98161156d565b9050919050565b7f4e487b7100000000000000000000000000000000000000000000000000000000600052601160045260246000fd5b60006115ea82610f0b565b91507fffffffffffffffffffffffffffffffffffffffffffffffffffffffffffffffff820361161c5761161b6115b0565b5b600182019050919050565b7f4e6f74206f776e65720000000000000000000000000000000000000000000000600082015250565b600061165d600983611209565b915061166882611627565b602082019050919050565b6000602082019050818103600083015261168c81611650565b9050919050565b7f43616e206f6e6c792073746172742066726f6d20726567697374726174696f6e600082015250565b60006116c9602083611209565b91506116d482611693565b602082019050919050565b600060208201905081810360008301526116f8816116bc565b9050919050565b600061170a82610f0b565b915061171583610f0b565b925082820390508181111561172d5761172c6115b0565b5b92915050565b6000819050919050565b61174e61174982610f0b565b611733565b82525050565b6000819050919050565b6000819050919050565b61177961177482611754565b61175e565b82525050565b600061178b828661173d565b60208201915061179b828561173d565b6020820191506117ab8284611768565b602082019150819050949350505050565b7f4e487b7100000000000000000000000000000000000000000000000000000000600052601260045260246000fd5b60006117f682610f0b565b915061180183610f0b565b925082611811576118106117bc565b5b828206905092915050565b7f4e487b7100000000000000000000000000000000000000000000000000000000600052603260045260246000fd5b7f4c6f7474657279206e6f7420636f6e636c756465640000000000000000000000600082015250565b6000611881601583611209565b915061188c8261184b565b602082019050919050565b600060208201905081810360008301526118b081611874565b9050919050565b7f5072697a6520616c726561647920636c61696d65640000000000000000000000600082015250565b60006118ed601583611209565b91506118f8826118b7565b602082019050919050565b6000602082019050818103600083015261191c816118e0565b9050919050565b7f4e6f2077696e6e657220647261776e0000000000000000000000000000000000600082015250565b6000611959600f83611209565b915061196482611923565b602082019050919050565b600060208201905081810360008301526119888161194c565b9050919050565b7f496e76616c696420636c61696d2073636f706500000000000000000000000000600082015250565b60006119c5601383611209565b91506119d08261198f565b602082019050919050565b600060208201905081810360008301526119f4816119b8565b9050919050565b7f5265636569766572206d69736d61746368000000000000000000000000000000600082015250565b6000611a31601183611209565b9150611a3c826119fb565b602082019050919050565b60006020820190508181036000830152611a6081611a24565b9050919050565b7f496e76616c696420636c61696d2070726f6f6600000000000000000000000000600082015250565b6000611a9d601383611209565b9150611aa882611a67565b602082019050919050565b60006020820190508181036000830152611acc81611a90565b9050919050565b7f4e6f7420696e20726567697374726174696f6e20706861736500000000000000600082015250565b6000611b09601983611209565b9150611b1482611ad3565b602082019050919050565b60006020820190508181036000830152611b3881611afc565b9050919050565b6000604082019050611b546000830185610fd4565b611b616020830184610fd4565b939250505056fea26469706673582212203f8b7b454df66a88e7f1d844d2098753263631b6fb4fc0db3eb7b81df09a3e0164736f6c63430008180033",
  "linkReferences": {},
  "deployedLinkReferences": {}
}