{
  "_format": "hh-sol-artifact-1",
  "contractName": "ZkVoting",
  "sourceName": "contracts/ZkVoting.sol",
  "abi": [
    {
      "inputs": [
        {
          "internalType": "address",
          "name": "_semaphoreAddress",
          "type": "address"
        },
        {
          "internalType": "address",
          "name": "_owner",
          "type": "address"
        }
      ],
      "stateMutability": "nonpayable",
      "type": "constructor"
    },
    {
      "anonymous": false,
      "inputs": [],
      "name": "PollClosed",
      "type": "event"
    },
    {
      "anonymous": false,
      "inputs": [
        {
          "indexed": false,
          "internalType": "uint256",
          "name": "candidate",
          "type": "uint256"
        }
      ],
      "name": "VoteCast",
      "type": "event"
    },
    {
      "anonymous": false,
      "inputs": [
        {
          "indexed": false,
          "internalType": "uint256",
          "name": "identityCommitment",
          "type": "uint256"
        }
      ],
      "name": "VoterRegistered",
      "type": "event"
    },
    {
      "inputs": [
        {
          "internalType": "uint256",
          "name": "vote",
          "type": "uint256"
        },
        {
          "components": [
            {
              "internalType": "uint256",
              "name": "merkleTreeDepth",
              "type": "uint256"
            },
            {
              "internalType": "uint256",
              "name": "merkleTreeRoot",
              "type": "uint256"
            },
            {
              "internalType": "uint256",
              "name": "nullifier",
              "type": "uint256"
            },
            {
              "internalType": "uint256",
              "name": "message",
              "type": "uint256"
            },
            {
              "internalType": "uint256",
              "name": "scope",
              "type": "uint256"
            },
            {
              "internalType": "uint256[8]",
              "name": "points",
              "type": "uint256[8]"
            }
          ],
          "internalType": "struct ISemaphore.SemaphoreProof",
          "name": "proof",
          "type": "tuple"
        }
      ],
      "name": "castVote",
      "outputs": [],
      "stateMutability": "nonpayable",
      "type": "function"
    },
    {
      "inputs": [],
      "name": "endVoting",
      "outputs": [],
      "stateMutability": "nonpayable",
      "type": "function"
    },
    {
      "inputs": [],
      "name": "groupId",
      "outputs": [
        {
          "internalType": "uint256",
          "name": "",
          "type": "uint256"
        }
      ],
      "stateMutability": "view",
      "type": "function"
    },
    {
      "inputs": [
        {
          "internalType": "uint256",
          "name": "",
          "type": "uint256"
        }
      ],
      "name": "isNullifierUsed",
      "outputs": [
        {
          "internalType": "bool",
          "name": "",
          "type": "bool"
        }
      ],
      "stateMutability": "view",
      "type": "function"
    },
    {
      "inputs": [],
      "name": "owner",
      "outputs": [
        {
          "internalType": "address",
          "name": "",
          "type": "address"
        }
      ],
      "stateMutability": "view",
      "type": "function"
    },
    {
      "inputs": [
        {
          "internalType": "uint256",
          "name": "identityCommitment",
          "type": "uint256"
        }
      ],
      "name": "registerVoter",
      "outputs": [],
      "stateMutability": "nonpayable",
      "type": "function"
    },
    {
      "inputs": [
        {
          "internalType": "uint256[]",
          "name": "identityCommitments",
          "type": "uint256[]"
        }
      ],
      "name": "registerVoters",
      "outputs": [],
      "stateMutability": "nonpayable",
      "type": "function"
    },
    {
      "inputs": [],
      "name": "semaphore",
      "outputs": [
        {
          "internalType": "contract ISemaphore",
          "name": "",
          "type": "address"
        }
      ],
      "stateMutability": "view",
      "type": "function"
    },
    {
      "inputs": [],
      "name": "startVoting",
      "outputs": [],
      "stateMutability": "nonpayable",
      "type": "function"
    },
    {
      "inputs": [],
      "name": "state",
      "outputs": [
        {
          "internalType": "enum ZkVoting.PollState",
          "name": "",
          "type": "uint8"
        }
      ],
      "stateMutability": "view",
      "type": "function"
    },
    {
      "inputs": [
        {
          "internalType": "uint256",
          "name": "",
          "type": "uint256"
        }
      ],
      "name": "voteCounts",
      "outputs": [
        {
          "internalType": "uint256",
          "name": "",
          "type": "uint256"
        }
      ],
      "stateMutability": "view",
      "type": "function"
    }
  ],
  "bytecode": "0x608060405234801561001057600080fd5b50604051610b85380380610b8583398101604081905261002f916100fa565b600080546001600160a01b0319166001600160a01b03848116918217909255600280546001600160a81b03191660ff196101009486169490940293909316929092179091556040516302e1f9db60e51b8152306004820152635c3f3b60906024016020604051808303816000875af11580156100af573d6000803e3d6000fd5b505050506040513d601f19601f820116820180604052508101906100d3919061012d565b600155506101469050565b80516001600160a01b03811681146100f557600080fd5b919050565b6000806040838503121561010d57600080fd5b610116836100de565b9150610124602084016100de565b90509250929050565b60006020828403121561013f57600080fd5b5051919050565b610a30806101556000396000f3fe608060405234801561001057600080fd5b50600436106100a95760003560e01c8063a0f44c9211610071578063a0f44c9214610141578063a13f2f8d1461014a578063adf77ce71461015d578063c19d93fb14610170578063c3403ddf1461018a578063c6c0572d1461019257600080fd5b80630d0b1176146100ae5780631ec6b60a146100c35780633c3a220d146100cb5780637b5d2534146100fe5780638da5cb5b14610129575b600080fd5b6100c16100bc366004610836565b6101c5565b005b6100c1610438565b6100eb6100d9366004610870565b60046020526000908152604090205481565b6040519081526020015b60405180910390f35b600054610111906001600160a01b031681565b6040516001600160a01b0390911681526020016100f5565b6002546101119061010090046001600160a01b031681565b6100eb60015481565b6100c1610158366004610870565b6104f8565b6100c161016b366004610889565b610604565b60025461017d9060ff1681565b6040516100f59190610916565b6100c1610758565b6101b56101a0366004610870565b60036020526000908152604090205460ff1681565b60405190151581526020016100f5565b60016002805460ff16908111156101de576101de610900565b146102265760405162461bcd60e51b81526020600482015260136024820152724e6f7420696e20766f74696e6720706861736560681b60448201526064015b60405180910390fd5b60408082013560009081526003602052205460ff16156102815760405162461bcd60e51b8152602060048201526016602482015275165bdd481a185d9948185b1c9958591e481d9bdd195960521b604482015260640161021d565b608081013530146102c45760405162461bcd60e51b815260206004820152600d60248201526c496e76616c69642073636f706560981b604482015260640161021d565b8181606001351461030e5760405162461bcd60e51b815260206004820152601460248201527315185b5c195c9959081d9bdd19481cda59db985b60621b604482015260640161021d565b600080546001546040516308ade83160e31b81526001600160a01b039092169163456f41889161034291869060040161093e565b602060405180830381865afa15801561035f573d6000803e3d6000fd5b505050506040513d601f19601f820116820180604052508101906103839190610994565b9050806103c55760405162461bcd60e51b815260206004820152601060248201526f24b73b30b634b2102d2590383937b7b360811b604482015260640161021d565b604080830135600090815260036020908152828220805460ff19166001179055858252600490529081208054916103fb836109bd565b90915550506040518381527f9593d9bd30eff4872ec3bab10360ad82eaac80651801e68f47f0674c38415c3d9060200160405180910390a1505050565b60025461010090046001600160a01b031633146104835760405162461bcd60e51b81526020600482015260096024820152682737ba1037bbb732b960b91b604482015260640161021d565b60006002805460ff169081111561049c5761049c610900565b146104e95760405162461bcd60e51b815260206004820181905260248201527f43616e206f6e6c792073746172742066726f6d20726567697374726174696f6e604482015260640161021d565b6002805460ff19166001179055565b60006002805460ff169081111561051157610511610900565b1461055a5760405162461bcd60e51b81526020600482015260196024820152784e6f7420696e20726567697374726174696f6e20706861736560381b604482015260640161021d565b600054600154604051631783efc360e01b81526001600160a01b0390921691631783efc391610596918590600401918252602082015260400190565b600060405180830381600087803b1580156105b057600080fd5b505af11580156105c4573d6000803e3d6000fd5b505050507f640cfad995238c39f105b2884a2e9d3b1482d753cdcc97f2e7db4192e89121a8816040516105f991815260200190565b60405180910390a150565b60006002805460ff169081111561061d5761061d610900565b146106665760405162461bcd60e51b81526020600482015260196024820152784e6f7420696e20726567697374726174696f6e20706861736560381b604482015260640161021d565b60005b81811015610753576000546001546001600160a01b0390911690631783efc39085858581811061069b5761069b6109e4565b905060200201356040518363ffffffff1660e01b81526004016106c8929190918252602082015260400190565b600060405180830381600087803b1580156106e257600080fd5b505af11580156106f6573d6000803e3d6000fd5b505050507f640cfad995238c39f105b2884a2e9d3b1482d753cdcc97f2e7db4192e89121a883838381811061072d5761072d6109e4565b9050602002013560405161074391815260200190565b60405180910390a1600101610669565b505050565b60025461010090046001600160a01b031633146107a35760405162461bcd60e51b81526020600482015260096024820152682737ba1037bbb732b960b91b604482015260640161021d565b60016002805460ff16908111156107bc576107bc610900565b146107ff5760405162461bcd60e51b81526020600482015260136024820152724e6f7420696e20766f74696e6720706861736560681b604482015260640161021d565b6002805460ff1916811790556040517f5e24da2538f801728822124bb8a94fd11c332883ca34345e44ddf7f79587cef990600090a1565b6000808284036101c081121561084b57600080fd5b833592506101a0601f198201121561086257600080fd5b506020830190509250929050565b60006020828403121561088257600080fd5b5035919050565b6000806020838503121561089c57600080fd5b823567ffffffffffffffff8111156108b357600080fd5b8301601f810185136108c457600080fd5b803567ffffffffffffffff8111156108db57600080fd5b8560208260051b84010111156108f057600080fd5b6020919091019590945092505050565b634e487b7160e01b600052602160045260246000fd5b602081016003831061093857634e487b7160e01b600052602160045260246000fd5b91905290565b828152813560208083019190915282013560408083019190915282013560608083019190915282013560808083019190915282013560a0808301919091526101c082019061010090840160c08401379392505050565b6000602082840312156109a657600080fd5b815180151581146109b657600080fd5b9392505050565b6000600182016109dd57634e487b7160e01b600052601160045260246000fd5b5060010190565b634e487b7160e01b600052603260045260246000fdfea2646970667358221220aab2dc777a9c69ae0aa6ebaefc33e0b8b7e8019eae7cc132c6be217e91b16f2064736f6c63430008220033",
  "linkReferences": {},
  "deployedLinkReferences": {}
}